:020000040000FA
:060000000A128A11F42F20
:100C80008316031389018312031389018316031347
:100C900087018312031387018316031385018312CF
:100CA000031385018316031388018312031388013C
:100CB000831603178801890183120313061486140F
:100CC0000800F201F301F001F1018312031387011F
:100CD0008801850109140630FA001330F900AD309F
:100CE000F800F80B712EF90B712EFA0B712E782E7D
:100CF00083120313091089140630FA001330F90027
:100D0000AD30F800F80B822EF90B822EFA0B822EF2
:100D1000892E83120313891009150630FA00133047
:100D2000F900AD30F800F80B932EF90B932EFA0B67
:100D3000932E9A2E8312031309110800BF2E8312DB
:100D400003130714DE2E831203138714DE2E83127F
:100D500003130715DE2E831203138715DE2E83126D
:100D600003130716DE2E831203138716DE2E83125B
:100D700003130717DE2E831203138717DE2E730863
:100D8000003A0319C42EDE2E7208013A03199F2E71
:100D9000033A0319A32E013A0319A72E073A0319A0
:100DA000AB2E013A0319AF2E033A0319B32E013AC1
:100DB0000319B72E0F3A0319BB2EDE2E0800002FA1
:100DC0008312031308141F2F8312031388141F2F79
:100DD0008312031308151F2F8312031388151F2F67
:100DE0008312031308161F2F8312031388161F2F55
:100DF0008312031308171F2F8312031388171F2F43
:100E00007108003A0319052F1F2F7008013A0319C2
:100E1000E02E033A0319E42E013A0319E82E073AAB
:100E20000319EC2E013A0319F02E033A0319F42E9C
:100E3000013A0319F82E0F3A0319FC2E1F2F080050
:100E40000A128A1140260A128A1183120313061805
:100E50002A2F2B2F302F0A128A1161260A128A118B
:100E6000831203138618352F362F3A2F0130F600E0
:100E70000030F700861C3D2F3E2F4C2F7603770461
:100E8000031D432F442F4C2FF601F7010130F207C9
:100E90000318F30A0030F30706194F2F502F542F71
:100EA0000130F4000030F500061D572F582F662F33
:100EB00074037504031D5D2F5E2F662FF401F50189
:100EC0000130F0070318F10A0030F1070A128A1105
:100ED0009E260A128A110A128A11DF260A128A1124
:100EE0000A128A1179270A128A11252F0A128A11E9
:100EF0000028093072067304031D7F2F802FB62F40
:100F000083120313870188010630FA001330F900B9
:100F1000AD30F800F80B8A2FF90B8A2FFA0B8A2FC5
:100F2000912F01308312031387000630FA0013302B
:100F3000F900AD30F800F80B9B2FF90B9B2FFA0B43
:100F40009B2FA22F8312031387010630FA00133060
:100F5000F900AD30F800F80BAB2FF90BAB2FFA0B03
:100F6000AB2FB22F013083120313870009307006B4
:100F70007104031DBC2FBD2FF32F831203138801AF
:100F800087010630FA001330F900AD30F800F80B95
:100F9000C72FF90BC72FFA0BC72FCE2F01308312A3
:100FA000031388000630FA001330F900AD30F80062
:100FB000F80BD82FF90BD82FFA0BD82FDF2F83126D
:100FC000031388010630FA001330F900AD30F80041
:100FD000F80BE82FF90BE82FFA0BE82FEF2F013071
:100FE0008312031388000800F001F101F201F301FC
:100FF000F401F501F601F70183010A128A11202F8D
:04400E00D120FF3F7F
:00000001FF
