:020000040000FA
:060000000A128A11F42F20
:100CBA00831603138901831203138901831603130D
:100CCA008701831203138701831603138501831295
:100CDA000313850183160313880183120313880102
:100CEA0083160317880189018312031306148614D5
:100CFA000800F201F301F001F101831203138701E5
:100D0A008801850109140630FA001330F900AD3064
:100D1A00F800F80B8E2EF90B8E2EFA0B8E2E952ECE
:100D2A0083120313091089140630FA001330F900EC
:100D3A00AD30F800F80B9F2EF90B9F2EFA0B9F2E61
:100D4A00A62E83120313891009150630FA001330F0
:100D5A00F900AD30F800F80BB02EF90BB02EFA0BF3
:100D6A00B02EB72E8312031309110800DC2E83124A
:100D7A0003130714FB2E831203138714FB2E83120B
:100D8A0003130715FB2E831203138715FB2E8312F9
:100D9A0003130716FB2E831203138716FB2E8312E7
:100DAA0003130717FB2E831203138717FB2E7308EF
:100DBA00003A0319E12EFB2E7208013A0319BC2EE0
:100DCA00033A0319C02E013A0319C42E073A03192C
:100DDA00C82E013A0319CC2E033A0319D02E013A30
:100DEA000319D42E0F3A0319D82EFB2E08001D2FF3
:100DFA008312031308143C2F8312031388143C2F05
:100E0A008312031308153C2F8312031388153C2FF2
:100E1A008312031308163C2F8312031388163C2FE0
:100E2A008312031308173C2F8312031388173C2FCE
:100E3A007108003A0319222F3C2F7008013A03194E
:100E4A00FD2E033A0319012F013A0319052F073A18
:100E5A000319092F013A03190D2F033A0319112F08
:100E6A00013A0319152F0F3A0319192F3C2F0800BD
:100E7A000A128A115D260A128A11831203130618AE
:100E8A00472F482F4D2F0A128A117E260A128A11DD
:100E9A00831203138618522F532F572F0130F6004F
:100EAA000030F700861C5A2F5B2F692F76037704D0
:100EBA00031D602F612F692FF601F7010130F20738
:100ECA000318F30A0030F30706196C2F6D2F712FE0
:100EDA000130F4000030F500061D742F752F832FA2
:100EEA0074037504031D7A2F7B2F832FF401F501F8
:100EFA000130F0070318F10A0030F1070A128A11CB
:100F0A00BB260A128A110A128A11FC260A128A11AF
:100F1A000A128A1196270A128A11422F0A128A1174
:100F2A0000287308803AFF0080307F02031D9F2F3C
:100F3A0009307202031CA22FA32FC52F8312031399
:100F4A00870188010630FA001330F900AD30F80045
:100F5A00F80BAD2FF90BAD2FFA0BAD2FB42FFF30D5
:100F6A008312031387000630FA001330F900AD30FC
:100F7A00F800F80BBE2FF90BBE2FFA0BBE2FC52FA8
:100F8A007108803AFF0080307F02031DCE2F09309E
:100F9A007002031CD12FD22FF32F8312031388015F
:100FAA0087010630FA001330F900AD30F800F80B6B
:100FBA00DC2FF90BDC2FFA0BDC2FE32F8312031340
:100FCA0088010630FA001330F900AD30F800F80B4A
:100FDA00EC2FF90BEC2FFA0BEC2FF32F0800F00192
:100FEA00F101F201F301F401F501F601F7018301C0
:060FFA000A128A113D2FCE
:04400E00D120FF3F7F
:00000001FF
