:020000040000FA
:060000000A128A11F42F20
:100CC2008316031389018312031389018316031305
:100CD200870183120313870183160313850183128D
:100CE20003138501831603138801831203138801FA
:100CF20083160317880189018312031306148614CD
:100D02000800093072067304031D882E892E8D2E69
:100D12008312031387010514093070067104031D41
:100D2200932E942E982E83120313880185140A3071
:100D32007206730403199E2E9F2EA62E0A30700689
:100D42007104031DA52EA62EAF2EF201F301F001B0
:100D5200F101831203138501870188010800F20162
:100D6200F301F001F1018312031387018801850168
:100D720009140630FA001330F900AD30F800F80B10
:100D8200C02EF90BC02EFA0BC02EC72E83120313EE
:100D9200091089140630FA001330F900AD30F8005A
:100DA200F80BD12EF90BD12EFA0BD12ED82E83129D
:100DB2000313891009150630FA001330F900AD301B
:100DC200F800F80BE22EF90BE22EFA0BE22EE92ED6
:100DD200831203130911080072037304031DF22E18
:100DE200F32EF62E831203130714023072067304D5
:100DF200031DFC2EFD2E012F83120313870187147E
:100E0200033072067304031D072F082F0C2F831261
:100E1200031387010715043072067304031D122F92
:100E2200132F172F831203138701871505307206BC
:100E32007304031D1D2F1E2F222F831203138701FC
:100E42000716063072067304031D282F292F2D2F33
:100E52008312031387018716073072067304031D7A
:100E6200332F342F382F83120313870107170830CB
:100E720072067304031D3E2F3F2F432F8312031369
:100E820087018717080070037104031D492F4A2F39
:100E92004D2F831203130814023070067104031DD0
:100EA200532F542F582F83120313880188140330B1
:100EB20070067104031D5E2F5F2F632F83120313CD
:100EC20088010815043070067104031D692F6A2F0A
:100ED2006E2F831203138801881505307006710482
:100EE200031D742F752F792F83120313880108169F
:100EF200063070067104031D7F2F802F842F83120A
:100F0200031388018816073070067104031D8A2FA7
:100F12008B2F8F2F83120313880108170830700656
:100F22007104031D952F962F9A2F831203138801A4
:100F3200881708000A128A1161260A128A1183127E
:100F420003130618A52FA62FAB2F0A128A11B0265B
:100F52000A128A11831203138618B02FB12FB52FEC
:100F62000130F6000030F700861CB82FB92FC72FCA
:100F720076037704031DBE2FBF2FC72FF601F7019B
:100F82000130F2070318F30A0030F3070619CA2FDB
:100F9200CB2FCF2F0130F4000030F500061DD22FE9
:100FA200D32FE12F74037504031DD82FD92FE12FFE
:100FB200F401F5010130F0070318F10A0030F107DE
:100FC2000A128A11ED260A128A110A128A1144277C
:100FD2000A128A110A128A1182260A128A11A02F73
:100FE2000A128A110028F001F101F201F301F40161
:0E0FF200F501F601F70183010A128A119B2F07
:04400E00D120FF3F7F
:00000001FF
