:020000040000FA
:060000000A128A11F42F20
:100CB800831603138901831203138901831603130F
:100CC8008701831203138701831603138501831297
:100CD8000313850183160313880183120313880104
:100CE80083160317880189018312031306148614D7
:100CF8000800F201F301F001F101831203138701E7
:100D08008801850109140630FA001330F900AD3066
:100D1800F800F80B8D2EF90B8D2EFA0B8D2E942ED4
:100D280083120313091089140630FA001330F900EE
:100D3800AD30F800F80B9E2EF90B9E2EFA0B9E2E66
:100D4800A52E83120313891009150630FA001330F3
:100D5800F900AD30F800F80BAF2EF90BAF2EFA0BF7
:100D6800AF2EB62E8312031309110800DB2E83124F
:100D780003130714FA2E831203138714FA2E83120F
:100D880003130715FA2E831203138715FA2E8312FD
:100D980003130716FA2E831203138716FA2E8312EB
:100DA80003130717FA2E831203138717FA2E7308F3
:100DB800003A0319E02EFA2E7208013A0319BB2EE5
:100DC800033A0319BF2E013A0319C32E073A031930
:100DD800C72E013A0319CB2E033A0319CF2E013A35
:100DE8000319D32E0F3A0319D72EFA2E08001C2FF9
:100DF8008312031308143B2F8312031388143B2F09
:100E08008312031308153B2F8312031388153B2FF6
:100E18008312031308163B2F8312031388163B2FE4
:100E28008312031308173B2F8312031388173B2FD2
:100E38007108003A0319212F3B2F7008013A031952
:100E4800FC2E033A0319002F013A0319042F073A1D
:100E58000319082F013A03190C2F033A0319102F0D
:100E6800013A0319142F0F3A0319182F3B2F0800C2
:100E78000A128A115C260A128A11831203130618B1
:100E8800462F472F4C2F0A128A117D260A128A11E3
:100E9800831203138618512F522F562F0130F60054
:100EA8000030F700861C592F5A2F682F76037704D5
:100EB800031D5F2F602F682FF601F7010130F2073D
:100EC8000318F30A0030F30706196B2F6C2F702FE5
:100ED8000130F4000030F500061D732F742F822FA7
:100EE80074037504031D792F7A2F822FF401F501FD
:100EF8000130F0070318F10A0030F1070A128A11CD
:100F0800BA260A128A110A128A11FB260A128A11B3
:100F18000A128A1195270A128A11412F0A128A1178
:100F280000287308803AFF0080307F02031D9E2F3F
:100F380009307202031CA12FA22FC42F831203139E
:100F4800870188010630FA001330F900AD30F80047
:100F5800F80BAC2FF90BAC2FFA0BAC2FB32FFF30DB
:100F68008312031387000630FA001330F900AD30FE
:100F7800F800F80BBD2FF90BBD2FFA0BBD2FC42FAE
:100F88007108803AFF0080307F02031DCD2F0930A1
:100F98007002031CD02FD12FF32F83120313880163
:100FA80087010630FA001330F900AD30F800F80B6D
:100FB800DB2FF90BDB2FFA0BDB2FE22FFF3083122D
:100FC800031388000630FA001330F900AD30F8003A
:100FD800F80BEC2FF90BEC2FFA0BEC2FF32F080082
:100FE800F001F101F201F301F401F501F601F70155
:080FF80083010A128A113C2F4B
:04400E00D120FF3F7F
:00000001FF
