:020000040000FA
:060000000A128A110C280F
:10000800FE00030EF6000A08F7000A128A111828E3
:100018000A128A110F28F001F101F201F301F4012B
:1000280083010A128A116E280B1C1B281C282328FE
:100038000B10831203130608F5007508F3000B1D57
:100048002628272834280B11063083120313810031
:100058000130F5007508F2070130F5007508F10761
:10006800831203130C1F39283A283E281E08F5006E
:100078007508F00077088A00760E8300FE0E7E0E63
:10008800090001308316031788008901013083169F
:1000980003138500033086008701880189018312D4
:1000A80003138501860187018801890103308316BE
:1000B800031396008B158B168B1761308F008112F6
:1000C800811101118110011406308312031381007C
:1000D8000B1108000A128A1145200A128A110A1205
:1000E8008A1194200A128A110A128A11B7200A1258
:1000F8008A110A128A11AE200A128A117408700233
:10010800031887288B288312031309158E28831256
:10011800031309117408880073280A128A110C281D
:10012800C8307206031999289A289B28AD28F2012D
:100138007303031DA028A128A5280130F80078081A
:10014800F40702307306031DAA28AB28AD28013036
:10015800F4020800283071060319B328B428B5281A
:0E016800B628F1010800831203131F080800D7
:04400E00D420FF3F7C
:00000001FF
