:020000040000FA
:100000000A128A11E42F00308A000408840A820749
:1000100000341134103411341134103401340134EB
:1000200011341134113411340034013410341034CB
:0200300010348A
:100C9000013401348312031386170130AA070318A5
:100CA000AB0A0030AB070630F2001330F100AD3074
:100CB000F000F00B592EF10B592EF20B592E602E2D
:100CC00083160313161083120618672E682E632EE0
:100CD0002A0885000800FF3083120313AA070318AF
:100CE000AB0AFF30AB070630F2001330F100AD3035
:100CF000F000F00B792EF10B792EF20B792E802E6D
:100D0000831203138619852E862E802E2A088500CD
:100D100083160313961108007030831603138F0493
:100D20000F1085017F30860087018801013089001E
:100D3000831203138501860187018801023089002F
:100D40008316031789010813831203131F179F13B8
:100D50001F119F151F169F12831603131F129F1238
:100D60009F13831203139F141F148B1783160313EF
:100D70000C130C178B170B100B1401309600161464
:100D800096150800831203131E08F900FA0179086A
:100D9000A6007A08A7001E08F900FA017908A40045
:100DA0007A08A5001030F0000030F1002708F300A9
:100DB0002608F2000A128A1105270A128A110F303A
:100DC000700583120313A60000307105A7000F30D1
:100DD0002405A40000302505A5002608013E840056
:100DE0000A128A1103200A128A11880007140710B8
:100DF0002408013E84000A128A1103200A128A1173
:100E00008800871487109F140800F601F11F092F2E
:100E10000A2F112FF009F109F00A0319F10AF6015E
:100E2000F60AF31F142F152F1E2FF209F309F20AE9
:100E30000319F30A0130F4007408F606F701F8010B
:100E4000700871040319252F262F5D2FF501F50A6F
:100E5000342F01300310F00DF10DFF3E031D2A2F3A
:100E60000130F4007408F507F11F372F382F292FB0
:100E700001300310F70DF80DFF3E031D392F7108E7
:100E80007302031D452F70087202031C482F492F5F
:100E9000502F7008F2027108031CF303F302771459
:100EA00001300310F10CF00CFF3E031D512F0130F7
:100EB000F502031D5C2F5D2F382F76080319612F73
:100EC000622F672FF709F809F70A0319F80A78085B
:100ED000F1007708F00008000A128A118C260A1225
:100EE0008A110430FD000C30FC003330FB00FB0B9A
:100EF000772FFC0B772FFD0B772F7E2F8312031399
:100F0000AE01061C842F852F872FAE01AE0A8316F3
:100F100003131608831203132E06FE392E068316BA
:100F20000313960016080139003A0319982F992FD8
:100F30009E2F0A128A114A260A128A11831203135B
:100F4000AF01861DA42FA52FA72FAF01AF0A2F0831
:100F5000FB00FB0DFB0DFB0D8316031316087B0630
:100F6000F7397B069600160CFC00FC0C7C0C013952
:100F7000003A0319BC2FBD2FC22F0A128A116B260B
:100F80000A128A11831203132B08803AFF00813062
:100F90007F02031DCD2F00302A02031CD02FD12F3A
:100FA000D52F83120313AA01AB01831203139F18D9
:100FB000DA2FDB2F712F0A128A11C2260A128A1128
:100FC000712F0A128A1100280A128A1148260A1261
:100FD0008A11AC000A128A1149260A128A11AD0040
:100FE000A001A101A201A301A401A501A601A701DD
:100FF000A801A901AA01AB0183010A128A116C2F71
:04400E00D420FF3F7C
:00000001FF
